:020000040800F2
:1000000008170020612A00082D0F00082F0F000894
:10001000330F0008370F00083B0F000800000000F6
:100020000000000000000000000000003F0F00087A
:10003000410F000800000000430F0008450F0008B2
:100040007B2A00087B2A00087B2A00087B2A0008FC
:100050007B2A00087B2A00087B2A00087B2A0008EC
:100060007B2A00087B2A00087B2A00087B2A0008DC
:100070007B2A00087B2A00087B2A00087B2A0008CC
:100080007B2A00087B2A00087B2A00087B2A0008BC
:100090007B2A00087B2A00087B2A00087B2A0008AC
:1000A0007B2A00087B2A00087B2A00087B2A00089C
:1000B0007B2A00087B2A0008F54E00087B2A0008EE
:1000C0007B2A00087B2A00087B2A00087B2A00087C
:1000D0007B2A0008D72900087B2A00087B2A000811
:1000E0007B2A00087B2A00087B2A00087B2A00085C
:1000F0007B2A00087B2A00087B2A00087B2A00084C
:100100007B2A00087B2A00087B2A00087B2A00083B
:100110007B2A00087B2A00087B2A00087B2A00082B
:100120007B2A00087B2A00087B2A00087B2A00081B
:1001300000F002F800F080F80AA090E8000C824479
:100140008344AAF10107DA4501D100F075F8AFF256
:10015000090EBAE80F0013F0010F18BFFB1A43F0A5
:1001600001031847403E0100603E010010F8013BCA
:100170000A4413F0030408BF10F8014B1D1108BF17
:1001800010F8015B641E05D010F8016B641E01F8C5
:10019000016BF9D1002D15D010F8014B03F00C03C1
:1001A0000C2BA1EB04040ABF10F8013BA4EB831451
:1001B000A4EB032405F1010314F8016B5B1E01F8A5
:1001C000016BF9D5914238BF10F8013BD1D370478C
:1001D0000023002400250026103A28BF78C1FBD850
:1001E000520728BF30C148BF0B607047662909F02D
:1001F000E881642905F05284752905F04F84782937
:1002000005F08884632906F03C81732906F041815A
:10021000002070471FB506F013FC040000200021E9
:1002200008F058FA401C60600020002108F03CFAF9
:10023000E0601FBD10B510BD06F0E4FE1146FFF7EB
:10024000E9FF00F04FFC07F035F903B4FFF7F2FFC8
:1002500003BC02F065FB000070B505460E469F2307
:100260007F223146002001F0EFFE002403E0284603
:1002700001F0D0FE641C7F2CF9D370BD38B54FF46B
:100280007843FDA20021084602F006FA4FF47843B5
:10029000FBA20021202002F0FFF94FF4FC63F9A239
:1002A0000021402002F0F8F9002400250DE04FF471
:1002B000784010232A4619460090204602F015F88F
:1002C00004F11000C4B2681CC5B2502CEFDD00244C
:1002D00009250DE04FF4784010232A462021009094
:1002E000204602F002F804F11000C4B2681CC5B246
:1002F000202CEFDD4FF4784004230090E3482021C8
:100300000268302002F0F3F94FF47843E0A2202194
:10031000602002F0C1F900240C250DE04FF4784074
:1003200010232A4630210090204601F0DEFF04F120
:100330001000C4B2681CC5B2202CEFDD4FF4784029
:1003400003230090D34830210268084602F00FFAD8
:100350004FF47843D0A23021602002F09DF91F2392
:10036000CEA24121002002F097F91F23C4A241210F
:10037000202002F091F9002400250CE01F2010231A
:100380002A4651210090204601F0AFFF04F11000F1
:10039000C4B2681CC5B2502CF0DD002409250CE065
:1003A0001F2010232A4661210090204601F09DFF66
:1003B00004F11000C4B2681CC5B2202CF0DD1F206F
:1003C00004230090B74861210268302002F08FF9C1
:1003D0001F23AFA26121602002F05EF900240C25EA
:1003E0000CE01F2010232A4671210090204601F0C6
:1003F0007CFF04F11000C4B2681CC5B2202CF0DDF3
:100400001F2003230090A84871210268302002F0C9
:10041000AEF91F23A0A27121602002F03DF9002453
:100420000F250CE01F2010232A4681210090204632
:1004300001F05BFF04F11000C4B2681CC5B2202CAF
:10044000F0DD1F200323002281210090302002F0E4
:100450004EF938BD2DE9F0418AB00024DFF84C8216
:1004600093A1404605F07AFD05460DB1012000E05C
:10047000002000287ED08F488F49904A904BCDE9CC
:10048000002102908F4A90A1884805F033FC8948EA
:10049000006808F0A5FECDE9020187480068874B97
:1004A000874A884900908BA005F09CFA01208F496B
:1004B0000860834840784E284CD100208C49086061
:1004C0007D480068714908607A4800687149086091
:1004D0004FF6FF7387A22021302002F0DDF84FF4A1
:1004E000784004230090694820210268302002F0FF
:1004F000FEF84FF6FF737FA23021084602F0CCF8D9
:100500004FF4784003230090624830210268084687
:1005100002F02DF96948007853280BD167484078DC
:10052000492807D1654880784E2803D100207349B7
:1005300008701AE061480078532816D15F48407867
:10054000412812D15D48807857280ED101206B498F
:1005500008700AE05A484078462806D15848807802
:10056000462802D10120624908606148006800BB4A
:100570005E4800E041E00068D8B14FF6FF7360A22A
:100580000021202002F088F84FF478435DA200217A
:10059000202002F081F84FF6FF7359A2412120205C
:1005A00002F07AF81F2358A24121202002F074F8AB
:1005B00088E24F4800680028FAD04C4800680028BC
:1005C000F6D04FF6FF734EA20021202002F064F80F
:1005D0004FF478434CA20021202002F05DF84FF642
:1005E000FF7347A24121202002F056F81F2346A2A4
:1005F0004121202002F050F864E244A12B4805F08C
:10060000ADFC05460DB1012000E00020002832D0ED
:1006100028482949294A2A4BCDE900210290294A34
:1006200029A1224805F066FB2248006808F0D8FDA1
:10063000CDE9020120480068204B214A2149009061
:1006400024A005F0CFF90120294908601C48407812
:100650004E287DD1002025490860174800681149BF
:10066000086014480068104908604FF6FF7321A223
:10067000612130204CE0E2E04348413A00000000B4
:100680004F4E200073656C656374000018000020F5
:10069000487A000020000020560000004348423AFB
:1006A000000000001C00002024000020E00F0020BB
:1006B000434841004C000020480000201C0E002050
:1006C000410000203D00002025732573257325641B
:1006D0002566000025730D0A25730D0A25730D0A82
:1006E00025640D0A25660D0A000000001000002098
:1006F0000C000020202020202020000014000020DA
:10070000202020004F4E00004F4646004348420044
:1007100001F0C2FF1F2004230090FE4861210268FF
:10072000302001F0E4FF4FF6FF73AFF23802712181
:10073000302001F0B1FF1F2003230090F648712103
:100740000268302002F013F8F4480078532800E0E3
:100750001CE00BD1F1484078492807D1EF48807858
:100760004E2803D10020EE4908701AE0EB480078CB
:10077000532816D1E9484078412812D1E7488078BB
:1007800057280ED10120E64908700AE0E548407874
:10079000462806D1E3488078462802D10120E24964
:1007A0000860E148006810BBE0480068F8B14FF607
:1007B000FF73AFF2B4020021202001F06DFF4FF46F
:1007C0007843AFF2BC020021202001F065FF4FF614
:1007D000FF73AFF2D4024121202001F05DFF1F23FF
:1007E000AFF2E0024121202001F056FF6AE1CE483D
:1007F00000680028FAD0CD4800680028F6D04FF6EF
:10080000FF73AFF204120021202001F045FF4FF4E6
:100810007843AFF20C120021202001F03DFF4FF68B
:10082000FF73AFF224124121202001F035FF1F2376
:10083000AFF22C124121202001F02EFF42E1BCA199
:10084000BD4805F08BFB05460DB1012000E00020FE
:100850000028CBD0B948BA49BA4ABB4BCDE90532DA
:10086000CDE90710B948BA49BA4AAC4BCDE90132D3
:10087000CDE90310AB48B84BB84AB9A10090AE48D7
:1008800005F038FAB248006808F0AAFCCDE9020188
:10089000B0480068A14BA34AAF490090B6A005F04C
:1008A000A1F8A748006808F09BFC0646A34800682A
:1008B000CDE900610290A348A34AA4490368B4A00B
:1008C00005F090F8A44840784E287DD10120B64923
:1008D0000870002095490860934908609D480068A9
:1008E000B24908609A480068B149086095480068B4
:1008F0008849086092480068874908608F48006806
:10090000AC4908604FF6FF73AFF218222021302067
:1009100001F0C2FE4FF4784004230090A348202148
:100920000268302001F0E3FE4FF6FF73AFF23C2285
:100930003021084601F0B0FE4FF4784003230090C8
:100940009B4830210268084601F011FF4FF6FF7303
:10095000AFF260226121302001F09EFE1F200423AF
:1009600000906C4861210268302001F0C0FE4FF613
:10097000FF73AFF280227121302001F08DFE1F2025
:1009800003230090644871210268302001F0EFFEDB
:100990004FF6FF7388A28121302001F07DFE1F20D9
:1009A00003230090834881210268302001F09FFEDC
:1009B0005A48007853280DD158484078492809D121
:1009C000564880784E2800E052E003D100207C4950
:1009D00008700EE05148007853280AD14F484078FB
:1009E000412806D14D488078572802D1012074490A
:1009F00008705548007853280BD15348407849284F
:100A000007D1514880784E2803D10020444908700E
:100A10000EE04D48007853280AD14B4840784128D1
:100A200006D149488078572802D101203C490870F6
:100A30004FF6FF73AFF238320021202001F02CFE78
:100A40004FF47843AFF244320021202001F024FE1D
:100A50004FF6FF73AFF258324121202001F01CFE07
:100A60001F23AFF260324121202001F015FE29E062
:100A700039484078462825D137488078462821D102
:100A80000020494908704FF6FF73AFF28C32002105
:100A9000202001F001FE4FF47843AFF294320021A0
:100AA000202001F0F9FD4FF6FF73AFF2AC32412187
:100AB000202001F0F1FD1F23AFF2B43241212020AC
:100AC00001F0EAFD4FF0000803E000201A49085544
:100AD000641C1948005D0028F7D13A4908600AB043
:100AE000BDE8F0811FB501F0B1FE4FF4A06001F048
:100AF000D7FF4FF4E13001F022FF00F08DFF01F04D
:100B0000C0FA4FF6FF7001F0DAFB4FF6FF702E4986
:100B100008605BE01C000020240000201C0E002068
:100B20001500002041000020100000200C000020D3
:100B3000646F75626C650000E00F00205C000020AF
:100B400060000020580000205400002050000020C9
:100B50004C000020480000203D000020260E002010
:100B600025732573257325732564256625732573E1
:100B70002564256625640000257320202573202028
:100B800025732020256420202566202000000000F9
:100B90002573202025732020256420202566202011
:100BA00025642020000000006400002018000020C0
:100BB000200000202C000020202020200000000029
:100BC00014000020CC0C0020C00C00200221A948F9
:100BD00002F0E1F80021A8480268A8480068A84B84
:100BE0001B78CDE90030CDE902210B46A24802680E
:100BF000A4480168A248007800F089FE00214FF067
:100C0000804003F035FA00219F4803F031FA9F231A
:100C10007F220021084601F0F7FD4FF4FA6001F051
:100C200052FE4FF6FF7001F04AFBFFF727FB97A03B
:100C300004F0D8FE9AA004F0D5FE9CA004F0D2FEE9
:100C4000A3A004F0CFFEABA004F0CCFEAC4804F0AF
:100C5000C9FE0DE1FFF7FEFBAA48006870BBAA4879
:100C6000006858B34FF08041A848006808F0E4FAE3
:100C700004464FF08041A648006808F0DDFA0546BA
:100C800000207E490968A34A12780123CDE90114A6
:100C9000009203902A467B4801687948007800F06A
:100CA00036FE0021784803F0E3F90121880703F0BC
:100CB000DFF974480168002000F08FFE9148006859
:100CC00058B19148006840B100214FF0804003F0D6
:100CD000CFF900216C4803F0CBF98A48006878B35B
:100CE0008948006860BB4FF080418848006808F080
:100CF000A3FA04464FF080418548006808F09CFA4A
:100D0000054601205D490968824A12780023CDE931
:100D10000114009203902A465A4801685848007806
:100D200000F0F5FD00214FF0804003F0A1F9012112
:100D3000554803F09DF951480168012000F04DFE2F
:100D400070480068002884D16F4800680028FAD1F4
:100D500071480068714908607148006871494843EA
:100D6000484909684FF4B472514390FBF1F06A4965
:100D700008606D48007801284FD1810763480068FA
:100D800008F05AFA04464FF080416148006808F0C4
:100D900053FA05460120394909685E4A127803462C
:100DA000CDE90114009203902A4636480168344880
:100DB000007800F0ACFD0121880703F059F957488D
:100DC000006855490968884218DC5348006853494F
:100DD0000968401A002807DD4F4909684F4A126820
:100DE000881A01F04CFD09E04B4800684B4909683E
:100DF000401A03D44848006801F041FD012122480F
:100E000003F036F91F480168002000F0E6FD1B489A
:100E10000168012000F0E1FD2AE04348007838BB7A
:100E20004FF080413948006808F006FA04464FF058
:100E300080413748006808F0FFF9054600210F4857
:100E40000068344A12780B46CDE90241CDE9002012
:100E50002A460C4801680A48007800F058FD002135
:100E60004FF0804003F004F90021074803F000F937
:100E7000F0E60000000C0140380000201C000020BB
:100E8000140000201800002000100040C7EBCAE446
:100E9000C8EBC8E7CFC2B2CECAFDA3BA0D0A0000A4
:100EA000B5A5CDA8B5C0A3BA0D0A0000434841209E
:100EB000736174652077617665666F726D20667206
:100EC000657175656E637920766F6C740D0A00002C
:100ED00043484220736174652077617665666F725E
:100EE0006D206672657175656E637920766F6C74BE
:100EF0000D0A0000B6E0CDA8B5C0A3BA0D0A0000E7
:100F0000A43E01080C000020100000202400002056
:100F100020000020150000203000002034000020B8
:100F20002C00002040420F0064000020704700BFEA
:100F3000FEE700BFFEE700BFFEE700BFFEE7704729
:100F400070477047704700000CB50020019000907A
:100F50006C48006840F480306A49086000BF694806
:100F6000006800F4003000900198401C0190009847
:100F700018B90198B0F5A06FF1D16248006800F48B
:100F8000003010B10120009001E000200090009896
:100F9000012843D15C48006840F010005A490860BD
:100FA0000846006820F0030008600846006840F02A
:100FB000020008605348406852494860084640684B
:100FC00048600846406840F48060486008464068D1
:100FD00020F47C1048600846406840F4E8104860FF
:100FE0000846006840F08070086000BF454800680F
:100FF00000F000700028F9D04248406820F003005B
:10100000404948600846406840F00200486000BF20
:101010003C48406800F00C000828F9D10CBD10B520
:10102000FFF792FF10BD10B53648006840F0010090
:1010300034490860084640683449084031494860EE
:1010400008460068324908402E4908600846006892
:1010500020F4802008600846406820F4FE004860C4
:101060004FF41F008860FFF7DAFF4FF00060294956
:10107000086010BD10B5002100200022214B5B68E4
:1010800003F00C0121B1042906D0082928D107E07A
:10109000214B224C236027E01F4B204C236023E090
:1010A000184B5B6803F47010164B5B6803F48032D6
:1010B000022303EB904022B9194B4343174C2360A2
:1010C0000DE0104B5B6803F4003323B1144B434332
:1010D000124C236003E0104B4343104C236003E0A9
:1010E0000D4B0E4C236000BF00BF064B5B68C3F383
:1010F00003130C4CE15C094B1B68CB40074C23608D
:1011000010BD000000100240002002400000FFF867
:10111000FFFFF6FE08ED00E000127A0068000020F4
:1011200000093D006C00002010B500240CE0E948E7
:10113000E94941F8240051F8240008F03FF9E74953
:1011400021F81400601C84B2242CF0DB10BD2DE9C2
:10115000FC5F4FF0120B4FF0000A42E0DA451BDA59
:10116000504607F0C3FD8046DD4ADE4B07F00EFE19
:1011700006464FF00042DC4B07F008FE044607F03D
:10118000BFFADA4941F82A0051F82A0008F016F9A6
:10119000D74921F81A0020E0504607F0A7FDD04AB1
:1011A000D04BCDE9000107F0F1FD80464FF0004241
:1011B000CD4B07F0EBFD06460022CE4B07F01AFFA1
:1011C000044607F09DFAC94941F82A0051F82A005F
:1011D00008F0F4F8C64921F81A000AF101001FFAD4
:1011E00080FABAF1240FB9DBBDE8FC9F70B500248A
:1011F00015E0204607F07AFD05464FF03332BE4B2E
:1012000007F088FD05D240F6FF70B44921F81400BC
:1012100003E00020B14921F81400601C84B2242CA2
:10122000E7DB70BD2DE9F0474FF0000A1EE05046A5
:1012300007F05CFD0646AA4AAA4B07F0A7FD044644
:101240004FF00042AD4B07F0A1FD804607F058FA81
:10125000A14941F82A0051F82A0008F0AFF89F4947
:1012600021F81A000AF101001FFA80FABAF1240FDE
:10127000DDDBBDE8F0872DE9F04786B04FF0000ACE
:101280002EE04FEA4A0007F01AFD80469C4A9D4B2B
:1012900007F07CFD00229C4BCDE9000107F01EFB0E
:1012A000064607F0B1F90022984BCDE9020107F09C
:1012B0006DFD04460022964B07F054FACDE9040177
:1012C00007F01EFA844941F82A0051F82A0008F074
:1012D00075F8824921F81A000AF101001FFA80FA14
:1012E000BAF1240FCDDB06B0BDE8F0870EB50121C1
:1012F000102002F036FA40F2DF10ADF804000020B2
:10130000ADF80000ADF80600ADF80200694681486E
:1013100002F052FB01217F4802F0AAFE20217D4805
:1013200003F01FF90121042002F01BFA40F2DF1044
:10133000ADF804000020ADF80000ADF80600ADF8EF
:1013400002006946744802F037FB0121724802F03E
:101350008FFE2021704803F004F90EBD00B585B062
:101360000121052002F0F0F90121480702F0F9F906
:1013700001F0B6FF00208DF813003020ADF810000A
:1013800003208DF8120004A9644801F057FC3021B5
:10139000624801F000FD042000900020019002202E
:1013A000039000200290694601F0A5FF0121002072
:1013B00001F0BEFF0121002001F0CBFF2C200090A6
:1013C0000020019002200390002002906946102026
:1013D00001F091FF0121102001F0AAFF012110204E
:1013E00001F0B7FF05B000BD00B58BB001210220B0
:1013F00002F09DF94A4803F019F94A48009037482D
:10140000019010200290242003900020049080205E
:101410000590400006908000079020200890000270
:10142000099000200A9069463D4803F0A1F9012186
:101430003B4803F0C8F93A48143003F0F7F839484C
:101440000C3000902A480190102002902420039034
:1014500000200490802005904000069080000790B6
:10146000202008900002099000200A9069462C482C
:10147000143003F07DF901212948143003F0A3F959
:101480000BB000BD2DE9F0470446204607F0B6FF3B
:1014900081462549484607F0CFFE81464FF08B41F3
:1014A000484607F0BFFF824607F09AFE07464FF016
:1014B00066321E4B07F012FA054607F021F9814605
:1014C000484607F07BFF85B22946002001F091FFD6
:1014D000BDE8F087171D1B45300E0020500F00207F
:1014E0002858A77B3B4DD73EC7868341C00E0020BE
:1014F000980F002000FEBF4033333940C786734148
:10150000894160E5D02209400000424000209C4013
:1015100000409F40001000400008004000080140CB
:10152000300402400874004000007A4466660A40B5
:101530002DE9F04F97B081468A469346584607F00A
:101540004FFE0746FD4AFE4B07F060FD054607F0DB
:10155000D7F8834600244FE0584607F041FECDE916
:101560000E01A9F1010007F0AAFB074688462046B4
:1015700007F0BCFB05460022F24B07F007FC3A4699
:101580004346CDE9000107F0A9F900224FF080435E
:10159000CDE9020107F0FAFBEB4AEC4BCDE904017F
:1015A00007F0F4FBCDE9060107F02EF8CDE90A01BA
:1015B000584607F015FECDE90801DDE90A2307F0DA
:1015C000E5FBCDE90C01DDE90E2307F0CBF80022A5
:1015D000DF4BCDE9100107F0D9FB4FF06632DD4B50
:1015E000CDE9120107F07AF9CDE9140107F03AFBD1
:1015F0002AF81400601C84B24C45ADDB17B0BDE87E
:10160000F08F2DE9F04F97B081468A46934600242B
:101610004EE0584607F0E4FDCDE90E01A9F10100C6
:1016200007F04DFBCDE90001204607F05FFB0746C0
:101630000022C44B07F0AAFB0546DDE9002307F0B2
:101640004DF900224FF08043CDE9020107F09EFBE7
:10165000BD4ABE4BCDE9040107F098FBCDE9060178
:1016600006F0D2FFCDE90A01584607F0B9FDCDE9F1
:101670000801DDE90A2307F089FBCDE90C01DDE96A
:101680000E2307F06FF80022B14BCDE9100107F0EF
:101690007DFB4FF06632AF4BCDE9120107F01EF92A
:1016A000CDE9140107F0DEFA2AF81400601C84B2B8
:1016B0004C45AEDB17B0BDE8F08F2DE9FF47814602
:1016C0008A4600241AE0204607F010FB00229D4BBA
:1016D000CDE9000107F05AFB074600229E4B07F0B8
:1016E000FDF8054600229A4B07F050FBCDE90201B8
:1016F00007F0B8FA2AF81400601C84B24C45E2DB0B
:10170000BDE8FF8738B505460C4685B101210420A8
:1017100002F01AF848208DF8030003208DF802002B
:101720001020ADF8000010218C4801F034FB4DB9B9
:101730000121042002F008F828208DF80300102071
:10174000ADF8000084B10121042001F0FDFF10205C
:101750008DF8030003208DF802002020ADF8000072
:1017600020217E4801F017FB4CB90121042001F033
:10177000EBFF28208DF803002020ADF8000069461B
:10178000764801F05BFA38BD7FB505460C4601216D
:10179000480701F0E6FF684601F0C4FD0020019013
:1017A000022003906DB1242000906946002001F0D2
:1017B000A2FD0121002001F0BBFD0121002001F06C
:1017C000C8FD6CB1042000906946102001F093FD23
:1017D0000121102001F0ACFD0121102001F0B9FD24
:1017E0003DB90021084601F0A3FD0021084601F0A3
:1017F000B0FD3CB90021102001F09AFD002110201D
:1018000001F0A7FD7FBDFEB507460C4616461D46F6
:101810001CB10121084601F0A4FF1DB101211020D7
:1018200001F09FFF684602F0F3FB0020ADF80000D6
:10183000ADF80600ADF8020054B1B8B2ADF804003E
:101840006946474802F0B8F82021480602F089FEB0
:101850005DB1B0B2ADF8040069464FF0804002F0CF
:10186000ABF820213E4802F07CFE1CB94FF08040CE
:1018700001F0CEFF15B93A4801F0CAFFFEBDF0B540
:101880008BB006460C4617461D460121022001F08A
:101890004EFF684602F08AFF10200290000103907C
:1018A0000020049080200590400006908000079062
:1018B0004FF44050099000200A902020089054B125
:1018C0002848009001966946274802F051FF0121FF
:1018D000254802F078FF6DB122480C300090019746
:1018E00069462148143002F043FF01211E4814309C
:1018F00002F069FF1CB900211B4802F064FF25B902
:1019000000211948143002F05EFF0BB0F0BD2DE944
:10191000FC5F8046894692461C46DDF830B00F9D3C
:101920001248B0FBF9F080B2019010490D98B1FB5C
:10193000F0F080B2009052460D491BE09A999999B7
:101940009999D93F0000F03F4AD8124DFB21094038
:1019500000FEAF4066660A4000E06F4000080140AC
:10196000001000400874004030040240A24A040005
:101970007C0000204FF48070FFF7DAFD21494FF41E
:1019800080700E9AFFF73DFE1F494FF48070FFF7FD
:1019900094FE2CB1B8F1000F01D11C4E00E01A4E9C
:1019A0002DB1BBF1000F01D1164F00E0164F2946B3
:1019B0002046FFF7A7FE2B462146DDE90020FFF772
:1019C00022FF29462046FFF7DFFE2B463A462146F6
:1019D0003046FFF754FFBDE8FC9F2DE9F041044677
:1019E0000E4614B94FF0804502E0012C00D1084D9D
:1019F000084890FBF6F087B23946284602F0CEFD43
:101A0000BDE8F0817C0200207C0400207C000020E6
:101A100000100040A24A040008B50121392001F05D
:101A200093FE0121FE4801F0DAF98020ADF80000B4
:101A300010208DF8030003208DF802006946F94854
:101A400001F0FCF84020ADF8000010208DF80300F4
:101A500003208DF802006946F24801F0EFF82020DB
:101A6000ADF8000010208DF8030003208DF802006F
:101A70006946EC4801F0E2F810208DF803000320DD
:101A80008DF802001020ADF800006946E54801F02D
:101A9000D5F80820ADF8000028208DF803000320B9
:101AA0008DF802006946DF4801F0C8F80420ADF85F
:101AB000000028208DF8030003208DF802006946FD
:101AC000D94801F0BBF84FF48050ADF80000282051
:101AD0008DF8030003208DF802006946D34801F019
:101AE000ADF828208DF8030003208DF802004FF494
:101AF0000060ADF800006946CC4801F09FF808BDD1
:101B000070B5FF248021C74801F045F94021C54840
:101B100001F041F92021C34801F03DF91021C148ED
:101B200001F039F90821BF4801F01BF905460421ED
:101B3000BD4801F016F905434FF48051BB4801F050
:101B400010F905434FF40061B84801F00AF9054364
:101B500015B94FF0FF3070BD052000F0B4FE08212C
:101B6000B04801F0FEF805460421AF4801F0F9F84D
:101B700005434FF48051AD4801F0F3F805434FF4AD
:101B80000061AA4801F0EDF8054315B94FF0FF30A8
:101B9000E1E78021A34801F000F94021A14801F0CC
:101BA000FCF820219F4801F0F8F810219D4801F031
:101BB000F2F808219B4801F0D4F89D4908700421EF
:101BC000994801F0CEF89B4908704FF4805197482E
:101BD00001F0C7F8984908704FF40061934801F08C
:101BE000C0F89649087092480078012809D19148B8
:101BF000007830B99048007818B90846007800B9E4
:101C00000D248B48007850B98A480078012806D105
:101C10008948007818B98948007800B900248448B8
:101C2000007850B98348007838B98348007820B9E3
:101C300082480078012800D10F247D48007850B9EF
:101C40007C48007838B97C480078012803D17B486B
:101C5000007800B90E2400BF0821724801F081F815
:101C600005460421704801F07CF805434FF480518B
:101C70006E4801F076F805434FF400616B4801F0BF
:101C800070F80543002DE7DC8021664801F083F8F9
:101C90004021644801F081F82021624801F07DF87C
:101CA0001021604801F079F808215E4801F059F8E8
:101CB0005F49087004215C4801F053F85D490870E1
:101CC0004FF48051594801F04CF85B4908704FF4CB
:101CD0000061564801F045F85849087054480078AA
:101CE000012809D15348007830B95348007818B911
:101CF0000846007800B901244D48007850B94D4895
:101D00000078012806D14C48007818B94B48007873
:101D100000B902244648007850B94648007838B9DE
:101D200045480078012803D14448007800B90324CD
:101D30003F48007850B93F48007838B93E480078AD
:101D400020B93E480078012800D10A2400BF0821AC
:101D5000344801F006F805460421334801F001F843
:101D600005434FF48051314800F0FBFF05434FF429
:101D700000612E4800F0F5FF0543002DE7DC8021CF
:101D8000284801F00AF84021264801F004F82021F3
:101D9000244801F002F81021224800F0FEFF08213B
:101DA000204800F0DEFF2249087004211E4800F0A0
:101DB000D8FF204908704FF480511C4800F0D1FF33
:101DC0001D4908704FF40061184800F0CAFF1B4914
:101DD000087017480078012809D11648007830B9F2
:101DE0001548007818B90846007800B9042410484E
:101DF000007850B90F480078012806D10E480078C5
:101E000018B90E48007800B9052409480078D8B9F7
:101E100008480078C0B908480078012814D10FE0BC
:101E200000023000000C014000140140001001408D
:101E30007C0600207D0600207E0600207F06002014
:101E40005348007800B906245248007850B95248E7
:101E5000007838B95148007820B94D4800780128F9
:101E600000D10B2400BF08214D4800F07AFF054641
:101E700004214C4800F075FF05434FF480514A4857
:101E800000F06FFF05434FF40061474800F069FF21
:101E90000543002DE7DC8021414800F07EFF402112
:101EA0003F4800F07AFF20213D4800F074FF1021E8
:101EB0003B4800F072FF0821394800F052FF3549D5
:101EC00008700421374800F04CFF334908704FF484
:101ED0008051354800F045FF304908704FF40061EB
:101EE000314800F03EFF2A4908702A48007801284E
:101EF00009D12948007830B92848007818B908462F
:101F0000007800B907242348007850B922480078A7
:101F1000012806D12148007818B91D48007800B979
:101F200008241C48007850B91B48007838B91B4871
:101F30000078012803D11648007800B90924154813
:101F4000007850B91448007838B91448007820B99E
:101F50000F480078012800D10C2400BF0821104848
:101F600000F0FFFE054604210E4800F0FAFE05438E
:101F70004FF480510C4800F0F4FE05434FF400612B
:101F8000094800F0EEFE0543002DE7DC2046E2E5BF
:101F90007F0600207C0600207D0600207E060020B3
:101FA000000C0140001401400010014070B50446CF
:101FB0004FF48041FB4800F0F0FE002517E00421BB
:101FC000F94800F0EAFE04F0800020B10221F64852
:101FD00000F0E1FE03E00221F34800F0DEFE042100
:101FE000F14800F0D8FE6006040E681CC5B2082D4A
:101FF000E5DB4FF48041EB4800F0CDFE70BD10B53D
:1020000004464FF40041E74800F0C5FE2046FFF7C4
:10201000CDFF10BD10B504464FF40041E14800F07B
:10202000BAFEC4F30720FFF7C1FFE0B2FFF7BEFF1F
:1020300010BD10B504464FF40041DA4800F0ADFE83
:102040002046FFF7B3FF10BD2DE9F04104460D46D1
:1020500016461F462A20FFF7ECFFA01CFFF7DAFF09
:10206000B01CFFF7D7FF2B20FFF7E3FF681CFFF73B
:10207000D1FF781CFFF7CEFF2C20FFF7DAFFBDE879
:10208000F08108B50121142001F05EFB0720ADF8B6
:10209000000010208DF8030003208DF8020069462F
:1020A000C14800F0CBFD0721BF4800F074FE4FF49B
:1020B0006040ADF8000010208DF8030003208DF87B
:1020C00002006946B74800F0B9FD4FF46041B548D9
:1020D00000F061FE0121B44800F05FFE142000F022
:1020E000F2FB0121B04800F056FE142000F0EBFB9B
:1020F0004FF40051AB4800F04EFE1120FFF799FF5E
:10210000782000F0E0FBB120FFF793FF0520FFF7F8
:1021100076FF3C20FFF773FF3C20FFF770FFB220F3
:10212000FFF787FF0520FFF76AFF3C20FFF767FFF7
:102130003C20FFF764FFB320FFF77BFF0520FFF78C
:102140005EFF3C20FFF75BFF3C20FFF758FF0520B8
:10215000FFF755FF3C20FFF752FF3C20FFF74FFFF2
:10216000B420FFF766FF0320FFF749FFC020FFF709
:1021700060FF2820FFF743FF0820FFF740FF0420FF
:10218000FFF73DFFC120FFF754FFC020FFF737FFE7
:10219000C220FFF74EFF0D20FFF731FF0020FFF7B1
:1021A0002EFFC320FFF745FF8D20FFF728FF2A20D1
:1021B000FFF725FFC420FFF73CFF8D20FFF71FFF2F
:1021C000EE20FFF71CFFC520FFF733FF1A20FFF7B3
:1021D00016FF3620FFF72DFFC020FFF710FFE0208D
:1021E000FFF727FF0420FFF70AFF2220FFF707FF72
:1021F0000720FFF704FF0A20FFF701FF2E20FFF75B
:10220000FEFE3020FFF7FBFE2520FFF7F8FE2A2018
:10221000FFF7F5FE2820FFF7F2FE2620FFF7EFFE7E
:102220002E20FFF7ECFE3A20FFF7E9FE0020FFF733
:10223000E6FE0120FFF7E3FE0320FFF7E0FE132098
:10224000FFF7DDFEE120FFF7F4FE0420FFF7D7FEE5
:102250001620FFF7D4FE0620FFF7D1FE0D20FFF772
:10226000CEFE2D20FFF7CBFE2620FFF7C8FE232051
:10227000FFF7C5FE2720FFF7C2FE2720FFF7BFFEAE
:102280002520FFF7BCFE2D20FFF7B9FE3B20FFF70E
:10229000B6FE0020FFF7B3FE0120FFF7B0FE0420DA
:1022A000FFF7ADFE1320FFF7AAFE3A20FFF7C1FEAD
:1022B0000520FFF7A4FE2920FFF7BBFE08BD70B57F
:1022C00006469F237F2200210846FFF7BDFE00241B
:1022D00008E0002503E03046FFF79CFE6D1CA02DB2
:1022E000F9D3641C802CF4D370BD2DE9F05F8146D6
:1022F0008A4693461C46102C00D12C4D202C00D130
:102300002B4D0AEB0400431E09EB0400421E51460C
:102310004846FFF799FE04FB04F0C11700EB51712A
:10232000C1F3C7080BFB0855002715E000260EE097
:1023300028780121B140084018B10A98FFF76AFED9
:1023400003E01C480068FFF765FE701CC6B2082E4B
:10235000EEDB6D1C781CC7B24745E7DBBDE8F09F9C
:102360002DE9F05F81468A4693461C46102C00D129
:10237000114D202C00D10E4D0AEB0400431E09EB39
:102380000400421E51464846FFF75EFE04FB04F07F
:10239000C11700EB5171C1F3C7080BFB08550027AB
:1023A00022E0000000100140000801400009002068
:1023B00080060020C00C0020400B002000260EE00C
:1023C00028780121B140084018B10A98FFF722FE91
:1023D00003E0FE480068FFF71DFE701CC6B2082E21
:1023E000EEDB6D1C781CC7B24745E7DBBDE8F09F0C
:1023F00070B504460D4616462B4622462946204611
:10240000FFF722FE3046FFF705FE70BD2DE9F047CD
:1024100004460D4616461F46DDF820A03B463246D0
:1024200029462046FFF710FEA8460AE0A14604E030
:102430005046FFF7EFFD09F10109B145F8D908F160
:102440000108B845F2D9BDE8F087F8B504460D4655
:102450001646691E601E6B1C621C0096FFF7D6FFB5
:10246000F8BD2DE9FF4F85B081468A4600200390D4
:1024700083460798A0EB09040898A0EB0A06CDF85C
:102480000890CDF804A0002C01DD012705E00CB96F
:10249000002702E04FF0FF376442002E02DD4FF0CC
:1024A000010806E016B94FF0000802E04FF0FF38CF
:1024B0006642B44201DD254600E035460020049026
:1024C0001BE0129ADDE90110FFF792FF0398204408
:1024D0000390B3440398A84205DD0398401B039082
:1024E000029838440290AB4504DDABEB050B019834
:1024F000404401900498401C0490691C0498884250
:10250000DFD309B0BDE8F08F2DE9F84305460E464C
:1025100017469846089C33463A463146284600946A
:10252000FFF79FFF43462A46314628460094FFF7AF
:1025300098FF43463A46414628460094FFF791FFEC
:1025400043463A46314638460094FFF78AFFBDE8D5
:10255000F8832DE9F04706460F4690469946002538
:10256000444631E0791B301B4A46FFF741FF791B97
:1025700030194A46FFF73CFF3919701B4A46FFF7EE
:1025800037FF391B701B4A46FFF732FF79193019A4
:102590004A46FFF72DFF391B70194A46FFF728FFFF
:1025A000391970194A46FFF723FF7919301B4A463B
:1025B000FFF71EFF6D1C05FB05F004FB040108FB83
:1025C00008F0814200DD641EA542CBDDBDE8F08746
:1025D0002DE9F84F05460F4616469A46DDF828B015
:1025E0000095702D01D8902F01D9BDE8F88FA6F184
:1025F0002000C6B207F10F03EA1D39462846FFF74F
:1026000023FDBAF1000F25D1002420E004EB0610D1
:102610006F4911F800904FF0000811E009F0010037
:1026200018B15846FFF7F6FC03E068480068FFF76A
:10263000F1FC4FEA69096D1C08F1010000F0FF0888
:10264000B8F1080FEADB009D7F1C601CC4B2102C9F
:10265000DCDB1FE000241BE004EB06105C4911F8F2
:1026600000904FF000080EE009F0010028B1391980
:1026700005EB08005A46FFF7BBFE4FEA690908F16F
:10268000010000F0FF08B8F1080FEDDB601CC4B2D8
:10269000102CE1DB00BFA8E7F8B505460E4614464E
:1026A0001F4615E0702D01D900251036902E06D951
:1026B0000020054606464FF47840FFF700FE0097DD
:1026C0002278002331462846FFF782FF0835641C34
:1026D00020780028E6D1F8BD10B50246012000E0C0
:1026E00050430B1EA1F10104E1B2F9D110BD2DE957
:1026F000F84F06468A4690461D46DDF828904FF072
:10270000000B00242FE0281B401EC1B20A20FFF757
:10271000E3FFB8FBF0F00A21B0FBF1F201FB120776
:10272000BBF1000F10D1681EA0420DDD57B9082182
:1027300001FB0460002320225146CDF80090FFF7F2
:1027400047FF0EE04FF0010B07F13001CAB208213C
:1027500001FB046000235146CDF80090FFF738FFDD
:1027600000BF601CC4B2AC42CDDBBDE8F88F2DE9E0
:10277000FC5F06468A4617461C46DDF8308000207E
:1027800001901449384606F04DFE009006F016FE02
:102790008346002534E0601B401EC1B20A20FFF7CB
:1027A0009BFFBBFBF0F00A21B0FBF1F201FB120929
:1027B000A01EA84216D1A11E082202FB0160002320
:1027C0002E225146CDF8008006E00000C00C00200B
:1027D000C29600080000C842FFF7FAFE681CC5B2A6
:1027E000601CC4B209F13001CAB2082101FB0560C6
:1027F00000235146CDF80080FFF7EAFE681CC5B201
:10280000A542C8DBBDE8FC9F2DE9F04105460E4618
:102810001746984643463A4631462846FFF714FC89
:1028200000240CE0012101EB4401074A505CFFF752
:10283000E6FB054911F81400FFF7E1FB641CB4F551
:10284000A04FEFDBBDE8F081B29C000810B56FF03F
:10285000040000F074F92E4800682E49B0FBF1F036
:102860002D4908700846007800EB4001C1EBC0100C
:102870004FF6FF7101EAC0002849088010BD0146EB
:10288000254A12784A434FF0E0235A6100229A61A8
:102890001A46126942F001021A6100BF4FF0E022AD
:1028A000106900F001021AB100F48032002AF5D05C
:1028B0004FF0E022126922F001024FF0E0231A618A
:1028C00000229A6170470146144A12884A434FF029
:1028D000E0235A6100229A611A46126942F001020D
:1028E0001A6100BF4FF0E022106900F001021AB136
:1028F00000F48032002AF5D04FF0E022126922F075
:1029000001024FF0E0231A6100229A617047000033
:102910006800002000127A00C40C0020C60C0020C1
:10292000014600BF704700BF494A128802F04002CA
:10293000002AF9D0C2B2464B1B1D1A80704710B551
:1029400086B00446012144F2040000F0FDFE4FF47D
:102950000070ADF8140003208DF8160018208DF8D3
:10296000170005A93B4800F069F94FF48060ADF805
:10297000140004208DF8170005A9364800F05EF910
:1029800025208DF8000003208DF801008DF802004D
:1029900001208DF80300684600F087F801940020BC
:1029A000ADF80800ADF80A00ADF80C00ADF8100065
:1029B0000C20ADF80E0001A9254800F0D0FA012244
:1029C00040F22551224800F062FB0121204800F02E
:1029D00052FB06B010BD10B540F225511C4800F066
:1029E0003BFC10B31A4800F0B7FBC4B21A48008889
:1029F00000F40040C8B91848008800F4804060B175
:102A00000A2C03D000201449088020E012480088D6
:102A100040F400401049088019E00D2C06D10E4802
:102A2000008840F480400C49088010E00A48008883
:102A3000C0F30D0009490C5407480088401C0649A2
:102A4000088008460088C72801DD0020088010BDE6
:102A50000038014000080140CC0C0020E00F0020AD
:102A60000948804709480047FEE7FEE7FEE7FEE722
:102A7000FEE7FEE7FEE7FEE7FEE7FEE7044805495E
:102A8000054A064B70470000271000083101000876
:102A90000811002008170020081300200813002048
:102AA00031490143314A1160704770B5002100235C
:102AB0000F22C47804B32D4C246804F4E064C4F5F8
:102AC000E064210AC1F10403CA40447804FA03F126
:102AD0008478144021430901254C0678A1550478D7
:102AE00004F01F050124AC4005786D11AD0005F11F
:102AF000E025C5F8004109E0047804F01F05012431
:102B0000AC401C4D0678761145F8264070BD1A4A37
:102B10000A400243154B1B1F1A60704739B1134A14
:102B2000121D12680243114B1B1D1A6006E00F4A6A
:102B3000121D126882430D4B1B1D1A60704704283A
:102B400008D14FF0E021096941F004014FF0E02283
:102B5000116107E04FF0E021096921F004014FF015
:102B6000E0221161704700000000FA050CED00E062
:102B700000E400E080E100E080FFFF1F10B50446A4
:102B8000CC48844208D10121042000F0F7FD002147
:102B9000042000F0F3FD46E0C748844208D101213B
:102BA000082000F0EBFD0021082000F0E7FD3AE0EE
:102BB000C248844208D10121102000F0DFFD00212D
:102BC000102000F0DBFD2EE0BD48844208D1012139
:102BD000202000F0D3FD0021202000F0CFFD22E0D6
:102BE000B848844208D10121402000F0C7FD0021EF
:102BF000402000F0C3FD16E0B348844208D1012113
:102C0000802000F0BBFD0021802000F0B7FD0AE02D
:102C1000AE48844207D10121801500F0AFFD0021AC
:102C2000A01500F0ABFD10BD10B50121084600F065
:102C3000A5FD0021012000F0A1FD10BD2DE9F0410E
:102C4000024600250026002000230024002791F8DA
:102C500003C00CF00F0591F803C00CF0100CBCF190
:102C6000000F03D091F802C04CEA050591F800C0AE
:102C7000BCF1000F31D0146800202BE04FF0010CA4
:102C80000CFA00F3B1F800C00CEA03069E4220D112
:102C900083004FF00F0C0CFA03F7BC4305FA03FC5A
:102CA0004CEA040491F803C0BCF1280F06D14FF0A0
:102CB000010C0CFA00FCC2F814C00AE091F803C041
:102CC000BCF1480F05D14FF0010C0CFA00FCC2F822
:102CD00010C0401C0828D1D31460B1F800C0BCF16A
:102CE000FF0F34DD546800202EE000F1080C4FF097
:102CF000010808FA0CF3B1F800C00CEA03069E4282
:102D000021D183004FF00F0C0CFA03F7BC4305FAF6
:102D100003FC4CEA040491F803C0BCF1280F05D170
:102D200000F1080C08FA0CF8C2F8148091F803C0FE
:102D3000BCF1480F07D100F1080C4FF0010808FA68
:102D40000CF8C2F81080401C0828CED35460BDE8AF
:102D5000F0814FF6FF710180022181700421C17062
:102D600070470246002093680B400BB1012000E041
:102D7000002070470146886880B2704702460020F4
:102D8000D3680B400BB1012000E0002070470146E2
:102D9000C86880B2704701617047416170470AB1ED
:102DA000016100E041617047C16070474FF48032BB
:102DB0000A43826181618261826982697047024649
:102DC0000020434B18684FF68073184040EA021009
:102DD00008433F4B186070473E49C8617047F0B5E3
:102DE0000A46002300240021002500F00046B6F129
:102DF000004F02D1364EF16901E0354E7168C0F3E3
:102E0000034583B200F44016B6F5401F08D121F007
:102E100070612F4E766826F070662D4F7E6012E04E
:102E200000F48016B6F5801F06D1032606FA05F4D5
:102E3000A14341F0706106E0460D360103FA06F643
:102E4000B14341F0706122B1460D360103FA06F636
:102E5000314300F00046B6F1004F02D11C4EF16143
:102E600001E01B4E7160F0BD30B500228B071C0FD6
:102E70000F2303FA04F2164B08338C1053F8243056
:102E80009343134C08348D1044F8253023468C109E
:102E900053F824308C07240F00FA04F423430C4C1D
:102EA00008348D1044F8253030BD0A49DC31086003
:102EB0007047000000080140000C01400010014074
:102EC0000014014000180140001C01400020014096
:102ED000000001400000204210B50446FB48844237
:102EE00009D10121880300F049FC00214FF4804002
:102EF00000F044FC32E0F648844209D10121480444
:102F000000F049FC00214FF4003000F044FC25E0C3
:102F1000F048844209D10121880400F03CFC0021E2
:102F20004FF4802000F037FC18E0EB48844209D1D0
:102F30000121C80400F02FFC00214FF4002000F014
:102F40002AFC0BE0E548844208D10121080500F085
:102F500022FC00214FF4801000F01DFC10BD2DE973
:102F6000F04786B005460E460024A24600BFA146A3
:102F70000027B08900B100BF2F462C8A4CF6FF70A5
:102F80000440F08804432C82AC894EF6F3100440D0
:102F9000B08831890843718908430443AC81AC8A05
:102FA0004FF6FF400440B0890443AC8201A800F012
:102FB0005EFBC648874202D1DDF810A001E0DDF8D3
:102FC0000CA0A88900F4004040B10AEBCA0000EB55
:102FD0000A1031684900B0FBF1F807E00AEBCA00BB
:102FE00000EB0A1031688900B0FBF1F86420B8FBEF
:102FF000F0F004012009642101FB1089A88900F484
:10300000004040B1322000EBC900B0FBF1F000F00D
:103010000700044308E0322000EB09106421B0FBF4
:10302000F1F000F00F0004432C8106B0BDE8F087FA
:103030004FF41651016000218180C18001810C2173
:10304000418100218181704710B502460020108A1D
:103050004FF2FF0318400B884C8823438C8823438E
:10306000CC8823431843108210BD00210180418089
:103070008180C180704721B1828942F400528281EF
:1030800004E082894DF6FF731A4082817047F0B5E3
:103090000346002400260025002040F66A17B942A6
:1030A00000D100BF1846C1F3421401F01F060127EA
:1030B00007FA06F5012C01D10C3004E0022C01D1F5
:1030C000103000E014301AB107682F43076002E0A7
:1030D0000768AF430760F0BD1AB1838A0B43838250
:1030E00002E0838A8B4383827047028A4FF6F07333
:1030F0001A400282028A0A430282704782894FF292
:10310000FF731A40828182890A438281704721B10C
:10311000828942F00202828104E082894FF6FD73C7
:103120001A4082817047028A4FF6DF731A4002828A
:10313000028A0A430282704721B1028A42F4804225
:10314000028204E0028A4BF6FF731A400282704743
:10315000C1F308028280704701468888C0F30800E6
:103160007047818941F0010181817047028BD2B2A1
:103170000283028B42EA012202837047028B02F42F
:103180007F420283028B0A430283704721B1828A05
:1031900042F02002828204E0828A4FF6DF731A40F6
:1031A0008282704721B1828A42F01002828204E05A
:1031B000828A4FF6EF731A408282704721B1828A69
:1031C00042F00802828204E0828A4FF6F7731A40C6
:1031D0008282704721B1828942F40042828103E0F9
:1031E0008289C2F30E028281704721B1828A42F441
:1031F0000062828204E0828A4FF2FF731A40828268
:103200007047828A4FF6FB731A408282828A0A4391
:103210008282704721B1828A42F00202828204E0F7
:10322000828A4FF6FD731A40828270470246002060
:10323000B1F5007F00D100BF13880B400BB1012016
:1032400000E00020704701F40072B2F5007F00D169
:1032500000BFCA430280704770B5024600240023B5
:103260000025002040F66A16B14200D100BFC1F32C
:10327000421501F01F03012606FA03F3012D02D1C6
:103280009689334006E0022D02D1168A334001E0D0
:10329000968A33400C12012606FA04F4168834404C
:1032A00013B10CB1012000E0002070BD10B5002268
:1032B000002340F66A14A14200D100BF0A12012483
:1032C0009440A3B2DC43048010BD000000380140EC
:1032D0000044004000480040004C004000500040C6
:1032E00010B50121480700F056FA00214FF00050B8
:1032F00000F051FA10BD30B5002200235A4C22686C
:1033000040F6FE748440A243D1E900452C438D6809
:103310002C43CD6844EA050303FA00F42243524CDF
:10332000226030BD0021016041608160C160704752
:1033300039B14D4A1268012383401A434A4B1A603F
:1033400006E0494A1268012383409A43464B1A60BB
:10335000704741B1444A12684FF4805383401A4386
:10336000414B1A6007E0404A12684FF48053834093
:103370009A433D4B1A60704710B551B13A4A121D3D
:10338000126804090123A3401A43374B1B1D1A601E
:1033900009E0354A121D126804090123A3409A432B
:1033A000314B1B1D1A6010BD40B12F49091D096822
:1033B00041F003012C4A121D116007E02A49091D42
:1033C000096821F00301284A121D1160704710B5E9
:1033D0003AB1254B1B6801FA00F42343224C2360C9
:1033E00006E0214B1B6801FA00F4A3431E4C236046
:1033F00010BD08B5002200921B4A009200F108029D
:10340000009B1A440092009A116008BD08B5002282
:103410000092154A009200F11402009B1A44009297
:10342000009A116008BD30B500240023082802D19D
:1034300042EA012401E042EA01440B4B00F120057D
:103440002B441C6030BD08B50146002000900648A2
:1034500000902C2000EB9100009A104400900098FE
:10346000006880B208BD000000740040DF480068BA
:1034700040F00100DD49086008464068DC4908402A
:10348000DA49486008460068DA490840D7490860C8
:103490000846006820F4802008600846406820F450
:1034A000FE0048604FF41F0088607047CF490968EC
:1034B00021F48031CD4A11601146096821F4802140
:1034C0001160B0F5803F03D0B0F5802F0ED106E03B
:1034D000C649096841F48031C44A116007E0C34914
:1034E000096841F4A021C14A116000E000BF00BF9B
:1034F000704710B501460022002300204A11012A1E
:1035000002D1BA4C236806E0022A02D1B74C236AE2
:1035100001E0B64C636A01F01F02012494401C4094
:103520000CB1012000E0002010BD38B50020009053
:103530000024002500BF3120FFF7DBFF054600987F
:10354000401C00900098B0F5A06F01D0002DF2D083
:103550003120FFF7CEFF08B1012400E0002420460F
:1035600038BD01460020A14A106820F0F80040EA6A
:10357000C10010607047A0490860704702460020F3
:103580009A4B586820F47C1042EA01031843974B89
:103590005860704798490866704701460020934A72
:1035A000506820F003000843506070478F4840681F
:1035B00000F00C007047014600208C4A506820F053
:1035C000F00008435060704701460020874A506869
:1035D00020F4E06008435060704701460020834AB1
:1035E000506820F4605040EAC1005060704729B133
:1035F0007E4A527A02437D4B5A7204E07B4A527AE9
:1036000082437A4B5A7270477B49D83108607047C1
:1036100001460020754A506820F44040084350603D
:1036200070470021714A20321170704A82F82010D0
:10363000012802D004280AD104E001216B4A20327B
:10364000117005E00521694A2032117000E000BFC9
:1036500000BF70476949086070476449096A0143BF
:10366000624A11627047654944390860704730B555
:1036700000210022002400235C4D6D6805F00C0140
:1036800021B1042905D0082923D105E05C4D05604E
:1036900022E05B4D05601FE0544D6D6805F470122B
:1036A000524D6D6805F48034022505EB92421CB939
:1036B000544D554305600BE04C4D6D6805F40035E5
:1036C0001DB1504D5543056002E04D4D5543056019
:1036D00002E04B4D056000BF00BF444D6D6805F032
:1036E000F0010909484D6B5C0568DD4045603F4DC0
:1036F0006D6805F4E061090A434D6B5C4568DD4087
:1037000085603A4D6D6805F46051C90A3E4D6B5CA9
:103710004568DD40C560354D6D6805F44041890B55
:103720003A4D6B5CC568B5FBF3F5056130BD29B159
:103730002E4A526902432D4B5A6104E02B4A5269CA
:1037400082432A4B5A61704729B1284A9269024341
:10375000264B9A6104E0254A92698243234B9A6181
:10376000704729B1214AD2690243204BDA6104E053
:103770001E4AD26982431D4BDA61704729B11B4A48
:10378000D2680243194BDA6004E0184AD2688243D7
:10379000164BDA60704729B1144A12690243134B81
:1037A0001A6104E0114A12698243104B1A61704792
:1037B00012494039086070470F49C86470470B4987
:1037C000C87170470948406A40F0807007494862F4
:1037D000704701460020054A92680A400AB101205C
:1037E00000E00020704701498872704700100240D5
:1037F0000000FFF8FFFFF6FE000042428004424254
:1038000000127A0000093D00CE0C0020DE0C0020E2
:1038100010B50446FE48844208D10121C014FFF7C8
:10382000ADFF0021E014FFF7A9FFC4E0B4F1804F21
:1038300008D101210846FFF7AEFF00210120FFF764
:10384000AAFFB8E0F348844208D101210220FFF723
:10385000A2FF00210220FFF79EFFACE0EE48844269
:1038600008D101210420FFF796FF00210420FFF773
:1038700092FFA0E0E948844208D101210820FFF727
:103880008AFF00210820FFF786FF94E0E448844285
:1038900008D101211020FFF77EFF00211020FFF743
:1038A0007AFF88E0DF48844208D101212020FFF719
:1038B00072FF00212020FFF76EFF7CE0DA4884428F
:1038C00008D101214014FFF759FF00216014FFF7D0
:1038D00055FF70E0D548844209D10121C804FFF7A3
:1038E0004DFF00214FF40020FFF748FF63E0D04870
:1038F000844209D101210805FFF740FF00214FF460
:103900008010FFF73BFF56E0CA48844209D10121ED
:103910004805FFF733FF00214FF40010FFF72EFF9B
:1039200049E0C548844208D101214020FFF733FF18
:1039300000214020FFF72FFF3DE0C048844208D11E
:1039400001218020FFF727FF00218020FFF723FFC0
:1039500031E0BB48844208D101218015FFF71BFFED
:103960000021A015FFF717FF25E0B648844209D1D2
:1039700001210804FFF702FF00214FF48030FFF718
:10398000FDFE18E0B048844209D101214804FFF748
:10399000F5FE00214FF40030FFF7F0FE0BE0AB48DE
:1039A000844208D101218804FFF7E8FE00214FF48A
:1039B0008020FFF7E3FE10BD00220288944B98425E
:1039C0000ED0994B98420BD0B0F1804F08D0914B5C
:1039D000984205D0904B984202D0904B984204D127
:1039E0004FF68F731A404B881A438D4B984207D07D
:1039F0008C4B984204D04FF6FF431A40CB881A43B1
:103A000002808B8883850B880385814B98420BD07D
:103A1000854B984208D08B4B984205D08A4B9842F0
:103A200002D08A4B984201D10B7A0386012383820C
:103A3000704770B5002400220023058C4FF6FE76F7
:103A400035400584028C8388048B4FF68F752C409B
:103A5000B51E2C400D882C43751E2A400D892A4323
:103A60004D882A436A4DA8420BD06F4DA84208D01A
:103A7000744DA84205D0744DA84202D0734DA8429F
:103A800013D14FF6F7752A404D892A434FF6FB753F
:103A90002A408D882A434FF6FF652B404FF6FF558D
:103AA0002B408D892B43CD892B4383800483CD8884
:103AB0008586028470BD70B5002400220023058C29
:103AC0004FF6EF7635400584028C8388048B48F6E8
:103AD000FF752C404FF6FF452C400D884FF6FF76C2
:103AE00006EA05252C434FF6DF752A400D8906EAC4
:103AF00005152A434D8806EA05152A43444DA84278
:103B000002D0494DA8421DD14FF67F752A404D89FC
:103B10004FF6FF7606EA05152A434FF6BF752A4091
:103B20008D8806EA05152A434FF6FF352B404FF2E4
:103B3000FF752B408D8906EA85052B43CD8906EA62
:103B400085052B4383800483CD880587028470BD5F
:103B500070B5002400220023058C4FF6FF66354027
:103B60000584028C8388848B4FF68F752C404FF62A
:103B7000FC752C400D882C434FF6FF552A400D89CB
:103B80004FF6FF7606EA05252A434D8806EA052505
:103B90002A431F4DA84202D0234DA8421DD14FF207
:103BA000FF752A404D894FF6FF7606EA05252A4320
:103BB0004FF6FF352A408D8806EA05252A434EF642
:103BC000FF752B404DF6FF752B408D8906EA0515D4
:103BD0002B43CD8906EA05152B4383808483CD884A
:103BE0008587028470BD70B5002200230024058CF7
:103BF0004EF6FF7635400584038C8488828B48F628
:103C0000FF752A404FF6FF452A400D8820E000004E
:103C1000002C01400004004000080040000C00405F
:103C2000001000400014004000340140004C0140EE
:103C3000005001400054014000180040001C0040AA
:103C40000020004000400140004401400048014085
:103C50004FF6FF7606EA05252A434DF6FF752B4001
:103C60000D8906EA05352B434D8806EA05352B43B9
:103C7000FA4DA84202D0FA4DA84208D14BF6FF7582
:103C80002C408D894FF6FF7606EA85152C438480FB
:103C90008283CD88A0F84050038470BD828B4FF2A0
:103CA000FF331A408283828B4FF6FF7303EA0123AE
:103CB0001A4382837047F0B50C4615460022002156
:103CC0000026078C4EF6FF7C07EA0C070784828BE0
:103CD000018C4FF6FF7707EA043640F6FF473A407B
:103CE0004FF6FF7707EA05273A434FF6FF7707EAD3
:103CF00003373A43D94FB8420ED0D94FB8420BD010
:103D0000B0F1804F08D0D74FB84205D0D64FB84257
:103D100002D0D64FB84206D14DF6FF77394046F46F
:103D20008057394305E047F6FF57394044F4805740
:103D3000394382830184F0BD828B4FF6F3731A40BE
:103D40008283828B0A4382837047F0B50C46154606
:103D5000002200210026078C4FF6FF6C07EA0C07B3
:103D60000784828B018C4FF6FF7707EA04264FF613
:103D70000C773A404FF6FF7707EA03172F433A4391
:103D8000B64FB8420ED0B64FB8420BD0B0F1804F0C
:103D900008D0B44FB84205D0B34FB84202D0B34FA9
:103DA000B84206D14FF6FF57394046F48077394381
:103DB00005E04FF2FF57394044F48077394382835E
:103DC0000184F0BD028B4FF2FF331A400283028B55
:103DD0004FF6FF7303EA01231A4302837047F0B5DD
:103DE0000C461546002200210026078C4FF6EF7C7A
:103DF00007EA0C070784028B018C4FF6FF7707EA6E
:103E0000041640F6FF473A404FF6FF7707EA0337BC
:103E10003A434FF6FF7707EA05273A438F4FB842F8
:103E20000ED08F4FB8420BD0B0F1804F08D08D4FDD
:103E3000B84205D08C4FB84202D08C4FB84206D160
:103E40004FF6DF77394046F01007394305E04FF66B
:103E50005F77394044F01007394302830184F0BD95
:103E6000028B4FF6F3731A400283028B0A430283DC
:103E70007047F0B50C46154600220021068C4FF61F
:103E8000FE773E400684028B018C4FF60C76324062
:103E90007E1C06EA03162E433243704EB0420ED00B
:103EA0006F4EB0420BD0B0F1804F08D06D4EB04293
:103EB00005D06D4EB04202D06C4EB04206D14FF6E6
:103EC000FD76314044F00106314305E04FF6F576CA
:103ED000314044F00106314302830184F0BD70B5E6
:103EE00005460C465D4885420ED05D4885420BD0A4
:103EF000B5F1804F08D05B48854205D05A488542CD
:103F000002D05A48854200D100E000BF208850B955
:103F10002389A28861882846FFF7ABFFE1882846FD
:103F2000FFF79EFF25E0208804280AD12389A28874
:103F300061882846FFF753FFE1882846FFF742FFD4
:103F400017E0208808280AD12389A288618828469A
:103F5000FFF7FBFEE1882846FFF7EEFE09E0238924
:103F6000A28861882846FFF7A6FEE1882846FFF769
:103F700095FE70BD2DE9F04105460C46002601274F
:103F8000608808B9022600E00026A088012801D137
:103F9000022700E001272088A0B92389A288618830
:103FA0002846FFF766FFE1882846FFF759FF238977
:103FB0003A4631462846FFF712FFE1882846FFF7C8
:103FC00001FF13E02389A28861882846FFF707FFD5
:103FD000E1882846FFF7F6FE23893A46314628460F
:103FE000FFF747FFE1882846FFF73AFFBDE8F08179
:103FF0000A884B881A438B881A43CB881A430B894B
:104000001A434B891A438B891A43A0F844207047FE
:104010004FF6FF71818000210180C18041800172D3
:1040200070470021018041808180C18001814181F0
:104030008181C181704700210180418001218180FF
:104040000021C18001817047002101804180818071
:10405000C18001814181818170470000002C0140B5
:10406000003401400004004000080040000C004003
:1040700021B1028842F00102028004E002884FF67A
:10408000FE731A400280704731B1B0F8442042F408
:104090000042A0F8442005E0B0F84420C2F30E022C
:1040A000A0F8442070471AB183890B43838102E052
:1040B00083898B43838170478182704741EA020381
:1040C000A0F8483070471AB183890B43838102E01E
:1040D00083898B438381704701894FF6F8721140C1
:1040E000018170470A46002101894FF68F731940FC
:1040F00011430181704730B504460D4629462046DC
:10410000FFF7F0FF208940F00700208130BD2DE946
:10411000F04104460D4616461F46602D06D13B462B
:10412000012231462046FFF75AFE05E03B460122B8
:1041300031462046FFF79DFE29462046FFF7D2FF75
:10414000208940F007002081BDE8F08130B50C46A1
:1041500000210189C9B24FF6FF7505EA0325154311
:1041600025432943018130BD2DE9F04105460E4626
:1041700017469846002443463A4631462846FFF7FC
:10418000E5FF2C894FF6F870044044F007044FF621
:104190008F70044044F070042C81BDE8F081F0B5CC
:1041A00004460D4616461F463B46324629462046E3
:1041B000FFF7CCFF208940F480402081F0BD0185CD
:1041C000828270470A46002101884FF68F7319409A
:1041D000114301807047F0B50C4615461E4600217C
:1041E000002200230189028B038C4FF6F8773940B7
:1041F00021434FF6FC473A4040F201173A434FF64D
:10420000DD773B404FF6FF7707EA06172F433B4326
:10421000018102830384F0BD0A460021018B4FF621
:104220008F7319401143018370470A460021018BA7
:1042300048F6FF7319404FF6FF7303EA0223194350
:10424000018370470A460021818B4FF68F73194016
:104250001143818370470A460021818B48F6FF7322
:1042600019404FF6FF7303EA022319438183704715
:1042700021B1028842F08002028004E002884FF6F9
:104280007F731A400280704721B1828842F0040295
:10429000828004E082884FF6FB731A408280704768
:1042A00021B1828842F00802828004E082884FF6C1
:1042B000F7731A408280704721B1828842F0010270
:1042C000828004E082884FF6FE731A408280704735
:1042D0000A460021018B4FF6F77319401143018301
:1042E00070470A460021018B4FF2FF7319404FF6C9
:1042F000FF7303EA02231943018370470A46002132
:10430000818B4FF6F77319401143818370470A463A
:104310000021818B4FF2FF7319404FF6FF7303EAC0
:1043200002231943818370470A460021018B4FF60F
:10433000FB7319401143018370470A460021018B2A
:104340004FF6FF3319404FF6FF7303EA0223194378
:10435000018370470A460021818B4FF6FB73194099
:104360001143818370470A460021818B4FF6FF334A
:1043700019404FF6FF7303EA022319438183704704
:104380000A460021018B4FF67F73194011430183C8
:1043900070470A460021018BC1F30E014FF6FF73EF
:1043A00003EA02231943018370470A460021818BE7
:1043B0004FF67F7319401143818370470A460021ED
:1043C000818BC1F30E014FF6FF7303EA02231943F9
:1043D000818370470A460021018C4FF6FD73194016
:1043E0001143018470470A460021018C4FF6F77390
:1043F00019401143018470470A460021018C4FF691
:10440000DF7319404FF6FF7303EA02131943018467
:1044100070470A460021018C4FF67F7319404FF612
:10442000FF7303EA02131943018470470A4600210F
:10443000018C4FF6FF5319404FF6FF7303EA022336
:104440001943018470470A460021018C4FF2FF7323
:1044500019404FF6FF7303EA0223194301847047A2
:104460000A460021018C4DF6FF7319404FF6FF7389
:1044700003EA023319430184704730B50023012455
:104480008C40A3B2048C9C430484048C02FA01F592
:10449000ADB22C43048430BD30B5002304248C40DD
:1044A000A3B2048C9C430484048C02FA01F5ADB2DF
:1044B0002C43048430BD70B5034600200024184608
:1044C000183001258D40ACB21D8CA5431D8409B167
:1044D000082909D100EB6100056825F07005056029
:1044E0000568154305600EE00D1FC5F34E05284411
:1044F000056825F4E045056005684FF6FF7606EA95
:1045000002263543056070BD21B1028842F00202E7
:10451000028004E002884FF6FD731A400280704763
:1045200021B1028842F00402028004E002884FF6C2
:10453000FB731A400280704721B1828842F08002EA
:10454000828004E082884FF67F731A408280704731
:1045500002884FF6F7731A40028002880A430280ED
:10456000704782884FF68F731A40828082880A4390
:104570008280704702894FF6F8731A4002810289DF
:104580000A430281704702894FF67F731A40028105
:1045900002890A4302817047818470478185704790
:1045A000818670470187704781877047A0F8401067
:1045B000704702884FF6FF431A40028002880A4380
:1045C000028070470146888E70470146088F704709
:1045D0000146888F70470146B1F840007047014698
:1045E000888C70470146088D704702460020138A68
:1045F0000B400BB1012000E000207047CA4302824B
:10460000704730B50246002000230024158A05EAD1
:104610000103958905EA010413B10CB1012000E002
:10462000002030BDCA4302827047000001684FF687
:10463000FE72114001600021016041608160C16033
:104640008D49884208D18C490839496841F00F01E9
:10465000894A083A51608AE087491431884208D172
:1046600085490839496841F0F001834A083A5160A8
:104670007DE081492831884208D17F49083949685D
:1046800041F470617C4A083A516070E07A493C31EB
:10469000884208D178490839496841F47041764A1E
:1046A000083A516063E074495031884208D1724938
:1046B0000839496841F470216F4A083A516056E060
:1046C0006D496431884208D16B490839496841F421
:1046D0007001694A083A516049E067497831884277
:1046E00008D165490839496841F07061624A083A61
:1046F00051603CE06149884206D1011F096841F0E0
:104700000F01021F116032E05C491431884208D168
:104710005A49091F096841F0F001584A121F1160F7
:1047200025E056492831884208D15449091F0968B3
:1047300041F47061514A121F116018E04F493C3139
:10474000884208D14D49091F096841F470414B4A1C
:10475000121F11600BE049495031884207D1474987
:10476000091F096841F47021444A121F1160704703
:1047700010B50022026847F6F0739A430C6A8B6802
:1047800023430C6923434C6923438C692343CC693D
:1047900023434C6A23438C6A23431A430260CB6849
:1047A00043600B6883604B68C36010BD00210160EB
:1047B00041608160C160016141618161C1610162EB
:1047C00041628162704721B1026842F001020260D9
:1047D00004E002684FF6FE731A40026070471AB197
:1047E00003680B43036002E003688B430360704778
:1047F000416070470146486880B27047014600201A
:10480000002201F080531BB11C4B083B1A6802E0E8
:10481000194B083B1A6802EA01030BB1012000E0C2
:104820000020704700F0805119B11449091F086039
:1048300002E0114908394860704701460020002213
:1048400001F080531BB10D4B083B1A6802E00A4B84
:10485000083B1A6802EA01030BB1012000E00020C6
:10486000704700F0805119B10449091F086002E047
:1048700001490839486070470800024008040240B6
:1048800010B58CB004461E230BAA03A9204600F0E5
:10489000ABFE0090009810B101200CB010BD9DF847
:1048A0002C00044400200B900EE040489DF82C2082
:1048B00050F8221003A800F0FFFD00B908E09DF8B1
:1048C0002C00401CC0B20B909DF82C000728ECD3A4
:1048D00000BF9DF82C00072863D2DFE800F0040534
:1048E0003C5E6564630000BF31A001F07BF831A03D
:1048F00001F078F83FA001F075F84EA001F072F8D1
:104900005CA001F06FF86BA001F06CF879A001F0E9
:1049100069F886A001F066F88BA001F063F890A01A
:1049200001F060F894A001F05DF899A001F05AF848
:104930009EA001F057F8A4A001F054F8B0A001F037
:1049400051F8BDA001F04EF8C8A001F04BF8D4A07A
:1049500001F048F89AE216A001F044F8E0A001F056
:1049600041F800200B900EE0ED4800689DF82C20E7
:1049700000EBC2004168EBA001F034F89DF82C0078
:10498000401CC0B20B90E648007D9DF82C10884278
:10499000EADC07A001F026F878E205A001F022F891
:1049A000C4E171E245E219E2ECE10000E40C002010
:1049B0000D0A00002D2D2D2D2D2D2D2D2D2D2D2DC4
:1049C0002D2D2D2D2D2D2D2D2D2D2D2D55534D4195
:1049D00052542056332E312D2D2D2D2D2D2D2D2D94
:1049E0002D2D2D2D2D2D2D2D2D2D2D2D2D2D2D2004
:1049F0000D0A00002020202055534D415254CAC7B3
:104A0000D3C9414C49454E54454BBFAAB7A2B5C482
:104A1000D2BBB8F6C1E9C7C9B5C4B4AEBFDAB5F701
:104A2000CAD4BBA5BDBBD7E9BCFE2CCDA8B9FD201F
:104A30000D0A0000CBFC2CC4E3BFC9D2D4CDA8B969
:104A4000FDB4AEBFDAD6FACAD6B5F7D3C3B3CCD06D
:104A5000F2C0EFC3E6B5C4C8CEBACEBAAFCAFD2C19
:104A6000B2A2D6B4D0D02ED2F2B4CB2CC4E3BFC9FC
:104A70000D0A0000D2D4CBE6D2E2B8FCB8C4BAAF7B
:104A8000CAFDB5C4CAE4C8EBB2CECAFD28D6A7B3E6
:104A9000D6CAFDD7D62831302F3136BDF8D6C62933
:104AA000A1A2D7D6B7FBB4AEA1A2BAAFCAFDC8EBDC
:104AB0000D0A0000BFDAB5D8D6B7B5C8D7F7CEAA69
:104AC000B2CECAFD292CB5A5B8F6BAAFCAFDD7EE4D
:104AD000B6E0D6A7B3D63130B8F6CAE4C8EBB2CE4A
:104AE000CAFD2CB2A2D6A7B3D6BAAFCAFDB7B520BD
:104AF0000D0A0000BBD8D6B5CFD4CABE2ED0C2D4C2
:104B0000F6B2CECAFDCFD4CABEBDF8D6C6C9E8D665
:104B1000C3B9A6C4DC2CD0C2D4F6BDF8D6C6D7AA79
:104B2000BBBBB9A6C4DC2E0D0A000000BCBCCAF594
:104B3000D6A7B3D63A7777772E6F70656E656476B1
:104B40002E636F6D0D0A000055534D415254D3D062
:104B500037B8F6CFB5CDB3C3FCC1EE3A0D0A0000AD
:104B60003F3A202020202020BBF1C8A1B0EFD6FA88
:104B7000D0C5CFA20D0A000068656C703A202020D5
:104B8000BBF1C8A1B0EFD6FAD0C5CFA20D0A000084
:104B90006C6973743A202020BFC9D3C3B5C4BAAFBF
:104BA000CAFDC1D0B1ED0D0A0A00000069643A20C7
:104BB00020202020BFC9D3C3BAAFCAFDB5C4494421
:104BC000C1D0B1ED0D0A0A006865783A2020202096
:104BD000B2CECAFD3136BDF8D6C6CFD4CABE2CBAC5
:104BE000F3B8FABFD5B8F12BCAFDD7D6BCB4D6B44A
:104BF000D0D0BDF8D6C6D7AABBBB0D0A0A000000AC
:104C00006465633A20202020B2CECAFD3130BDF861
:104C1000D6C6CFD4CABE2CBAF3B8FABFD5B8F12BDA
:104C2000CAFDD7D6BCB4D6B4D0D0BDF8D6C6D7AAA4
:104C3000BBBB0D0A0A00000072756E74696D653A9F
:104C4000312CBFAAC6F4BAAFCAFDD4CBD0D0BCC6F3
:104C5000CAB13B302CB9D8B1D5BAAFCAFDD4CBD08C
:104C6000D0BCC6CAB13B0D0A0A000000C7EBB0B405
:104C7000D5D5B3CCD0F2B1E0D0B4B8F1CABDCAE456
:104C8000C8EBBAAFCAFDC3FBBCB0B2CECAFDB2A27C
:104C9000D2D4BBD8B3B5BCFCBDE1CAF82E0D0A0016
:104CA0002D2D2D2D2D2D2D2D2D2D2D2D2D2D2D2D34
:104CB0002D2D2D2D2D2D2D2D2D2D414C49454E5475
:104CC000454B2D2D2D2D2D2D2D2D2D2D2D2D2D2DDE
:104CD0002D2D2D2D2D2D2D2D2D2D2D200D0A0000AE
:104CE0002D2D2D2D2D2D2D2D2D2D2D2D2D2D2D2DF4
:104CF0002D2D2D2D2D2D2D2D2DBAAFCAFDC7E5B58E
:104D0000A52D2D2D2D2D2D2D2D2D2D2D2D2D2D2D5B
:104D10002D2D2D2D2D2D2D2D2D2D2D2D200D0A0040
:104D2000280D002025730D0A00000000EFA000F000
:104D300059FE00200B901AE0FC4909689DF82C20D0
:104D400001EBC20101AB02AA486803A900F072FCA2
:104D5000F64800689DF82C1050F8312003A9F4A003
:104D600000F040FE9DF82C00401CC0B20B90EF48B4
:104D7000007D9DF82C108842DEDCAFF2CC3000F0D4
:104D800031FE83E0AFF2D83000F02CFE0BAA03A96D
:104D9000204600F02BFD9DF82C00C8B9694603A8F9
:104DA00000F0BDFB0B909DF82C0020B9E5A0009908
:104DB00000F018FE0EE09DF82C00042801D002201F
:104DC0006BE5E3A000F00EFE0120D849C87501E0B4
:104DD000022062E5DDA000F005FE57E0DBA000F058
:104DE00001FE0BAA03A9204600F000FD9DF82C004F
:104DF000C8B9694603A800F092FB0B909DF82C00FF
:104E000020B9D8A0009900F0EDFD0EE09DF82C002F
:104E1000042801D0022040E5D5A000F0E3FD0020E9
:104E2000C249C87501E0022037E5C8A000F0DAFDEC
:104E30002CE0C6A000F0D6FD0BAA03A9204600F086
:104E4000D5FC9DF82C00C8B9694603A800F067FBA3
:104E50000B909DF82C0078B9B449009881F8EC00CB
:104E6000084690F8EC0018B1C6A000F0BBFD07E0C2
:104E7000CBA000F0B7FD03E002200EE502200CE518
:104E8000B2A000F0AFFD01E0012006E500BF002068
:104E900003E510B50121C948FFF7B0FB4FF6FF71DC
:104EA000C648FFF77BFB0021C448FFF775FB0020D5
:104EB0009E49C1F8F00010BD10B50121BF48FFF7B1
:104EC00094FB012808D19948D0F8F0004FF6FF7103
:104ED00008449649C1F8F000B848FFF780FB9349B1
:104EE000D1F8F01008449149C1F8F0000846D0F814
:104EF000F00010BD10B50121B048FFF782FB01287A
:104F00000AD18A49086980470021AC48FFF744FB71
:104F10006421AA48FFF742FB0121A848FFF782FB62
:104F200010BD7FB505460C4601210420FEF719FC93
:104F3000ADF80850ADF804400020ADF80A00ADF817
:104F4000060001A99D48FEF737FD012241219B483B
:104F5000FFF7A9F81E208DF8000003208DF801004E
:104F60008DF8020001208DF803006846FDF79DFDD5
:104F700001219248FFF77CF87FBD10B5044604EB91
:104F8000C40000EB04100122C2EB800081B24FF498
:104F90007A70FFF7C6FF01206449C87510BD30B5AF
:104FA00095B0054613AB12AA09A9284600F042FBAA
:104FB000044614B1204615B030BD0020149026E000
:104FC0005A4909689DF8502001EBC20113AB11AAA0
:104FD000486801A900F02EFB04460CB12046EAE720
:104FE00009A901A800F068FA60B99DF844009DF88D
:104FF0004810884201DD0220DDE79DF850004B4952
:1050000088750AE09DF85000401CC0B214904748D3
:10501000007D9DF850108842D2DC00BF4348007DDF
:105020009DF85010884201D10420C4E714A92846F5
:1050300000F04DFC04460CB12046BCE79DF8500042
:105040003A4948750020B6E72DE9F0419AB0374853
:10505000847D007DA04202DC1AB0BDE8F0813349B6
:10506000096801EBC40106AB07AA486808A900F06B
:10507000E1FA08A952A000F0B5FC0026BAE02B48DE
:10508000008B0121B1400840D8B122214EA000F090
:10509000A9FC304600F00EFC24492431471839465B
:1050A0004AA000F09FFC222147A000F09BFC304664
:1050B00000F000FC1D492431084410A941F82600E5
:1050C0008EE0304600F0F6FB18492431085810A94C
:1050D00041F826001548C07D30B910A850F82610B8
:1050E0003BA000F07FFC7BE074E000002D2D2D2D17
:1050F0002D2D2D2D2D2D2D2D2D2D2D2D2D2D2D2DE0
:105100002D2D2D2D2DBAAFCAFD204944202D2D2D3A
:105110002D2D2D2D2D2D2D2D2D2D2D2D2D2D2D2DBF
:105120002D2D2D2D2D2D2D2D200D0A00280D00208B
:1051300025732069642069733A0D0A305825303888
:10514000580D0A004845583A305825580D0A0000B5
:105150003136BDF8D6C6B2CECAFDCFD4CABE210DF7
:105160000A0000004445433A256C750D0A00000012
:105170003130BDF8D6C6B2CECAFDCFD4CABE210DDD
:105180000A00000052756E2054696D652043616C01
:1051900063756C6174696F6E204F4E0D0A000000DC
:1051A00052756E2054696D652043616C63756C6146
:1051B00074696F6E204F46460D0A000000080040DB
:1051C0000D0A2573280000002563000025730000E8
:1051D000256C750010A850F8261095A000F002FC70
:1051E0009DF81C00401EB04202D093A000F0FAFBD4
:1051F000701CC6B29DF81C008642FFF640AF8FA01F
:1052000000F0F0FBFFF745FE8D48407D0B280DD2E6
:10521000DFE800F0060D151E27323F4E5F72870053
:105220008749096851F834008047054690E0844A70
:10523000126852F8341010988847054688E0804B71
:105240001B6853F83420DDE91001904705467FE0E4
:105250007B4F3F6857F8343010A807C89847054679
:1052600076E0DFF8DCC1DCF800C05CF8347010A830
:105270000FC8B84705466BE01498DFF8C4C100902A
:10528000DCF800C05CF8347010A80FC8B8470546B9
:105290005EE0DDE91401DFF8A8C1CDE90001DCF82A
:1052A00000C05CF8347010A80FC8B84705464FE03E
:1052B000DDE914121698DFF888C1CDE900120290DA
:1052C000DCF800C05CF8347010A80FC8B847054679
:1052D0003EE0DDE91423DDE91610DFF864C1CDE915
:1052E0000023CDE90210DCF800C05CF8347010A88F
:1052F0000FC8B84705462BE0DDE91523DDE9171097
:10530000CDE90123CDE903101498DFF834C10090F2
:10531000DCF800C05CF8347010A80FC8B847054628
:1053200016E0DDE91623DDE91810CDE90223CDE909
:105330000410DDE91401DFF808C1CDE90001DCF853
:1053400000C05CF8347010A80FC8B847054600BF0D
:1053500000BFFFF7B1FD9DF8180001280CD13848B7
:10536000C07D20B9294637A000F03CFB07E0294664
:1053700036A000F037FB02E033A000F033FB3048EA
:1053800090F8EC0088B12E48D0F8F0000A21B0FB6C
:10539000F1F201FB12072A48D0F8F000B0FBF1F857
:1053A0003A4641462CA000F01DFB00BF54E670B504
:1053B0003148008800F40040002833D02E4805789A
:1053C00000202E4948551E4881682C4888470446CD
:1053D0001CB91B49C868804721E02848FFF750FAEC
:1053E0000546012D00D02C46CCB1012C06D0022C54
:1053F00008D0032C0AD0042C10D10BE020A000F020
:10540000F1FA0BE021A000F0EDFA07E022A000F095
:10541000E9FA03E023A000F0E5FA00BF00BF002096
:105420001549088070BD01460868704701607047E3
:1054300030582558000000002C0000002900000012
:10544000280D00203D256C753B0D0A003D30582588
:10545000583B0D0A0000000046756E6374696F6E5C
:105460002052756E2054696D653A25642E2531648D
:105470006D730D0A00000000CC0C0020E00F00202E
:10548000BAAFCAFDB4EDCEF3210D0A00B2CECAFD0B
:10549000B4EDCEF3210D0A00B2CECAFDCCABB6E01E
:1054A000210D0A00CEB4D5D2B5BDC6A5C5E4B5C49C
:1054B000BAAFCAFD210D0A0002460AE010780B7847
:1054C000984201D001207047107800B902E0521CC8
:1054D000491CF3E700BF0020F5E706E002780A70F8
:1054E000027802B902E0401C491CF7E700BF704790
:1054F0000146002005E00A7802B903E0421CD0B260
:10550000491CF8E700BF704710B50246012000E0D3
:1055100050430B1EA1F10104E1B2F9D110BD2DE9F8
:10552000F04307460E4600254FF00A083C4600208F
:1055300030601FE02078392802DC207830280ADA31
:105540002078462802DC2078412804DA2078582880
:1055500009D1012D07D12078412801DB4FF0100837
:10556000681CC5B205E0207800B904E00120BDE860
:10557000F083641CDEE700BF3C46B8F1100F0FD18A
:10558000032D01DA0220F2E72078302806D1607876
:10559000582803D1A41CA81EC5B204E00320E6E7E6
:1055A0000DB90420E3E71BE00DB1681EC5B22078F9
:1055B000392806DC2078302803DB2078A0F1300978
:1055C00002E02078A0F1370929464046FFF79CFF0A
:1055D000316809FB00103060641C207800B900E0DD
:1055E000E2E700BF0020C2E710B5044600201070BB
:1055F0000BE020780870641C491C1078401C107067
:105600001078984201DB012010BD2078202802D0BC
:1056100020780028EDD10020087000BFF4E7014693
:10562000491C00E0491C0878202801D10029F9D143
:10563000087870472DE9FF4F85B0804689460027DE
:10564000002004900390012002904FF0000B0025F1
:1056500044461DE02078202816D005F07F0005285C
:1056600012DA0DB945F0800505F07F00042803D15A
:1056700020782A2800D00EE0207805F07F010DF870
:105680000100681CC5B202E0852D00D103E0641C56
:1056900020780028DED100BF8DB1002005F07F0109
:1056A0000DF80100CBA16846FFF706FF18B90021ED
:1056B0000898017002E001210898017000254FF060
:1056C000000A444614E0641C0AF1010000F0FF0ADD
:1056D0002078202802D020782A2809D12046FFF7F8
:1056E0009EFF0646282E03D02A2E01D0CDF810A00A
:1056F0002078282802D020780028E4D14446049855
:1057000010B10498401C04444FF0000A002654E0F5
:10571000207810B94FF0010A50E02078282803D1F2
:1057200016B9781CC7B213E02078292808D13EB9F1
:1057300017B1781EC7B201E04FF0010A47B93DE04A
:105740002078222804D10EB9012000E0002006466E
:1057500047B9207820282FD0207889F8000009F157
:10576000010929E020782C2804D101200290681C2E
:10577000C5B214E02078202811D0207828280ED037
:105780004DB9BBF1050F06DA20780DF80B000BF1CF
:10579000010000F0FF0B0298401CC0B20290012FE4
:1057A0000AD10298022807D10298401CC0B2029088
:1057B0000398401CC0B20390641CA9E700BF039883
:1057C000012809D100200DF80B0082A16846FFF7DF
:1057D00073FE08B900200390079903980870002011
:1057E00089F80000504609B0BDE8F08FF0B50346D7
:1057F0001546002000220026002455E01F782C2F9B
:1058000001D104B901221F78292F01D01F780FB9C7
:1058100004B94AE0002E34D11F78302F02DB1F7804
:10582000392F11DD1F78612F02DB1F78662F0BDD0A
:105830001F78412F02DB1F78462F05DD1F78582F78
:1058400002D01F78782F0CD102B12EE01F78612F83
:1058500003DB1F78203F0F7001E01F780F70491C99
:105860001FE01F78222F04D102B11EE0012601247F
:1058700017E01F78202F14D01F782C2F11D0FF266F
:1058800013E01F78222F00D1002402B10DE044B1B3
:105890001F785C2F02D15B1C471CF8B21F780F7079
:1058A000491C471CF8B25B1CA8E700BF00270F701B
:1058B0002E70F0BD02460020002105E0474B5B5CE6
:1058C0000344D8B24B1CD9B29142F7DB70472DE9A3
:1058D000F043B5B005460F460024002604E0002141
:1058E0003E488155701CC6B20A2EF8DB06E06D1CDE
:1058F000287818B9012035B0BDE8F0832878282829
:10590000F5D16D1C61E034AA69462846FFF76EFFA9
:10591000064635449DF8D00020B1012827D0FF2845
:105920004CD149E09DF8000000B333A96846FFF769
:10593000F6FD06460EB10220DDE72046FFF7BAFF6E
:1059400026490A31339A0A50A1F12400008B012123
:10595000A140884321491A39088304211F48015571
:10596000601CC4B20A2C01DD0320C4E726E06846AF
:10597000FFF7BEFD401C00F0FF082046FFF79AFF2E
:1059800016490A3100EB010949466846FFF7A5FDB3
:1059900012481A38018B0120A040014388B20F49F8
:1059A0001A3908830D4800F80480601CC4B20A2C20
:1059B00001DD03209FE701E002209CE700BF28787B
:1059C000292801D0287800B900E09CE700BF3C708E
:1059D000002090E7766F696400000000420D00200F
:1059E000704700000FB4044910B503AA029800F0F4
:1059F00055FD10BC5DF814FBC80C002070B50446C2
:105A000085690068C10601D5302600E02026C00760
:105A100007D070BDD4E9012130469047206A401C70
:105A200020626D1EF6D570BD70B50446856900789C
:105A3000C00707D170BDD4E9012120209047206A1A
:105A4000401C20626D1EF6D570BD70B50C46054633
:105A5000012A05D02878800600D5EA69002302E0F3
:105A6000012305E05B1C934202D2E05C0028F9D1DF
:105A7000A869E618C01AA861286A1844286228464E
:105A8000FFF7BCFF04E0D5E9012114F8010B9047B2
:105A9000B442F8D32846FFF7C7FF70BD2DE9F041A7
:105AA0000646002410687529314616A510D0AFF3BC
:105AB0000080002802DA404213A507E031688A0717
:105AC00001D512A502E0490704D511A5012401E082
:105AD000AFF3008000210A2206F1240709E0B0FBA1
